:04000000A1EF04F078
:10080000004577696E6773000000000E046E000EED
:10081000036E13D0000E066E000E056E06500AE140
:10082000510E055CD8B006D001D004D0054A062A86
:10083000F5D700D0034A042A00D00350015C0450CD
:100840000258D8B0E7D712000D6E000E0E6E020EE1
:100850000D6008D00A500F0B80090E6E0E5081EC0F
:1008600004F008D00A500F0BC0090E6E0E5081EC38
:1008700004F000D00BC008F00CC009F058EC04F0F4
:100880001200000E026E0F0E016E05EC04F0000E59
:10089000936E000E956E380E81EC04F0010E81EC23
:1008A00004F00C0E81EC04F0060E81EC04F0120052
:1008B0000BD008C0F6FF09C0F7FF0800F55094EC14
:1008C00004F0084A092A00D008C0F6FF09C0F7FF63
:1008D0000800F5500009D8A4ECD71200720ED36EB0
:1008E00041EC04F0450E94EC04F0000E0A6E010E8B
:1008F0000B6E080E0C6E010E24EC04F0FFD700EF17
:1009000000F0076E07C08AFF8C908C82000E026E8A
:10091000010E016E05EC04F08C92000E026E030EC7
:10092000016E05EC04F01200076E07C08AFF8C8090
:100930008C82000E026E010E016E05EC04F08C92AA
:100940001200000EF86E080EF76E00016EEF04F054
:020000040020DA
:08000000FFFFFFFFFFFFFFFF00
:020000040030CA
:0E00000000091F1EFF0381FF0FC00FE00F401D
:00000001FF
