:04000000AAEF04F06F
:1008000000456C656374726F6E696357696E6773D8
:100810000048656C6C6F0000000E046E000E036EE5
:1008200013D0000E066E000E056E06500AE1510E42
:10083000055CD8B006D001D004D0054A062AF5D709
:1008400000D0034A042A00D00350015C045002582F
:10085000D8B0E7D712000D6E000E0E6E020E0D60BE
:1008600008D00A500F0B80090E6E0E509CEC04F05D
:1008700008D00A500F0BC0090E6E0E509CEC04F00D
:1008800000D00BC008F00CC009F078EC04F01200A6
:10089000720ED36E61EC04F0050E0A6E110E0B6E33
:1008A000080E0C6E010E2BEC04F0000E0A6E010E09
:1008B0000B6E080E0C6E020E2BEC04F0FFD700EF4F
:1008C00000F0000E026E0F0E016E0CEC04F0000E34
:1008D000936E000E956E380E9CEC04F0010E9CECAD
:1008E00004F00C0E9CEC04F0060E9CEC04F01200DC
:1008F0000BD008C0F6FF09C0F7FF0800F5508EECDA
:1009000004F0084A092A00D008C0F6FF09C0F7FF22
:100910000800F5500009D8A4ECD71200076E07C0F4
:100920008AFF8C808C8200F08C92000E026E010E89
:10093000016E0CEC04F01200076E07C08AFF8C9069
:100940008C8200F08C92000E026E030E016E0CEC95
:1009500004F01200000EF86E080EF76E000148EF6A
:0209600004F0A1
:020000040020DA
:08000000FFFFFFFFFFFFFFFF00
:020000040030CA
:0E00000000091F1EFF0381FF0FC00FE00F401D
:00000001FF
