:040000004EEF09F0C6
:1006000000436F756E746572205374617274202D8F
:100610002D2D2D2D2D2D00436F756E74202D002551
:0306200064000073
:100624001EC036F01FC037F020C038F021C039F0AA
:1006340022C03AF023C03BF024C03CF025C03DF07A
:100644003DBE27EF03F02AEF03F0010E2BEF03F07A
:10065400000E346E356A34503510D8B434EF03F0DC
:1006640036EF03F046EF03F03D1E3C1E3B1E3A1EE0
:10067400391E381E371E366C000E372238223922B6
:100684003A223B223C223D227CBE4BEF03F04DEF4D
:1006940003F04EEF03F07D927CBE5BEF03F07C50E1
:1006A40006E17B04D8B059EF03F05BEF03F061EF90
:1006B40003F0000E316E010E306E65EF03F07BC067
:1006C40030F07CC031F082C032F083C033F034505B
:1006D4003510D8A470EF03F072EF03F079EF03F054
:1006E4007DA477EF03F079EF03F07CEF03F032069B
:1006F400D8A03306000E3F6E1F0E3E6E000E0001A2
:10070400A36F01EF04F03E06D8A03F06840E3E24FA
:10071400D96E000E3F20DA6E36C001F037C002F009
:1007240038C003F039C004F03AC005F03BC006F00D
:100734003CC007F03DC008F00A0E096E000E0A6EB8
:10074400000E0B6E000E0C6E000E0D6E000E0E6E83
:10075400000E0F6E000E106E1FEC06F001C026F0A6
:1007640002C027F003C028F004C029F005C02AF015
:1007740006C02BF007C02CF008C02DF026C013F0E3
:1007840028C014F0E4EC08F01350300FDF6E30068C
:10079400D8A031063206D8A0330636C001F037C0DF
:1007A40002F038C003F039C004F03AC005F03BC091
:1007B40006F03CC007F03DC008F00A0E096E000EBA
:1007C4000A6E000E0B6E000E0C6E000E0D6E000E07
:1007D4000E6E000E0F6E000E106E5BEC05F001C085
:1007E40036F002C037F003C038F004C039F005C059
:1007F4003AF006C03BF007C03CF008C03DF03FBEF5
:100804000CEF04F03F5008E13E04D8A00CEF04F0D4
:100814000EEF04F03EEF04F0365037103810391064
:100824003A103B103C103D10D8A41BEF04F01DEF10
:1008340004F085EF03F031BE2AEF04F0315006E1F5
:100844003004D8B028EF04F02AEF04F085EF03F069
:1008540033BE35EF04F0335008E13204D8A035EF4D
:1008640004F037EF04F03EEF04F07DB23CEF04F007
:100874003EEF04F085EF03F034503510D8A445EF73
:1008840004F047EF04F04EEF04F07DA44CEF04F0C5
:100894004EEF04F06CEF04F03E06D8A03F0634504F
:1008A4003510D8A458EF04F05AEF04F060EF04F0C8
:1008B400000E2F6E2B0E2E6E64EF04F0000E2F6EC2
:1008C4002D0E2E6E840E3E24D96E000E3F20DA6E5D
:1008D4002EC0DFFF1CC011F01DC012F0840E3E2498
:1008E400136E000E3F20146E32C015F033C016F0A4
:1008F400CAEC07F011C01CF012C01DF0120042C077
:10090400D9FF43C0DAFFDECFF6FFDDCFF7FF0800E3
:10091400F550250AD8A491EF04F093EF04F03FEFCB
:1009240005F042C0D9FF43C0DAFFDE2A000EDD2203
:10093400000E0001836F000E826F82C07DF083C0C1
:100944007EF07B687C6842C0D9FF43C0DAFFDECF0B
:10095400F6FFDDCFF7FF0800F550640AD8B4B5EF11
:1009640004F0B7EF04F0C9EF04F042C0D9FF43C06C
:10097400DAFFDECFF6FFDDCFF7FF0800F550690A96
:10098400D8A4C7EF04F0C9EF04F009EF05F042C0A2
:10099400D9FF43C0DAFFDE2A000EDD2244C0D9FFAE
:1009A40045C0DAFFDFCF46F0020EDE26DFCF47F088
:1009B400000EDD2246C0D9FF47C0DAFFDECF48F083
:1009C400DDCF49F0000E49BEFF0E4A6E4B6E4C6EF1
:1009D4004D6E4E6E4F6E40C01CF041C01DF048C0BD
:1009E4001EF049C01FF04AC020F04BC021F04CC09B
:1009F40022F04DC023F04EC024F04FC025F012EC7D
:100A040003F01CC040F01DC041F05AEF05F042C095
:100A1400D9FF43C0DAFFDECFF6FFDDCFF7FF0800D2
:100A2400F550250AD8A419EF05F01BEF05F032EFB5
:100A340005F042C0D9FF43C0DAFFDE2A000EDD22F2
:100A4400000E026E250E016E40C003F041C004F09A
:100A540065EC07F0000E416E010E406E5AEF05F092
:100A640042C0D9FF43C0DAFFDE2A000EDD22000EA9
:100A7400416E000E406E5AEF05F042C0D9FF43C0EC
:100A8400DAFFDECFF6FFDDCFF7FF0800F550016E89
:100A9400026A40C003F041C004F065EC07F042C0B4
:100AA400D9FF43C0DAFFDE2A000EDD222CEF05F069
:100AB4001200000E126E10BE64EF05F062EF05F036
:100AC40076EF05F0101E0F1E0E1E0D1E0C1E0B1EC3
:100AD4000A1E096C000E0A220B220C220D220E2281
:100AE4000F221022010E126E08BE7DEF05F07BEF7F
:100AF40005F08FEF05F0081E071E061E051E041ED6
:100B0400031E021E016C000E02220322042205228F
:100B1400062207220822010E121A20EE13F0070EF5
:100B2400DE6AE806FDE209500A100B100C100D10E5
:100B34000E100F101010D8B4A2EF05F0A4EF05F0BA
:100B4400F6EF05F0010E116EB2EF05F0D8900936FC
:100B54000A360B360C360D360E360F361036112A81
:100B640010AEB7EF05F0B9EF05F0A8EF05F0D89097
:100B740013361436153616361736183619361A360D
:100B84000950015C0A5002580B5003580C50045889
:100B94000D5005580E5006580F500758105008585D
:100BA400D8A0D7EF05F0D9EF05F0EAEF05F009502A
:100BB400015E0A50025A0B50035A0C50045A0D504D
:100BC400055A0E50065A0F50075A1050085A1380EF
:100BD400D89010320F320E320D320C320B320A32F0
:100BE4000932112EB9EF05F01250D8B4FCEF05F01C
:100BF400FEEF05F00EEF06F01A1E191E181E171E42
:100C0400161E151E141E136C000E14221522162215
:100C14001722182219221A2213C001F014C002F05C
:100C240015C003F016C004F017C005F018C006F094
:100C340019C007F01AC008F01200000E126E08BEA8
:100C440028EF06F026EF06F03AEF06F0081E071E1E
:100C5400061E051E041E031E021E016C000E022247
:100C6400032204220522062207220822010E126E04
:100C740010BE41EF06F03FEF06F051EF06F0101EF4
:100C84000F1E0E1E0D1E0C1E0B1E0A1E096C000EDE
:100C94000A220B220C220D220E220F2210220950AE
:100CA4000A100B100C100D100E100F101010D8B4E9
:100CB4005EEF06F060EF06F0A8EF06F0010E116E8D
:100CC4006EEF06F0D89009360A360B360C360D3620
:100CD4000E360F361036112A10AE73EF06F075EF8C
:100CE40006F064EF06F00950015C0A5002580B50FC
:100CF40003580C5004580D5005580E5006580F5008
:100D0400075810500858D8A08AEF06F08CEF06F068
:100D14009CEF06F00950015E0A50025A0B50035A28
:100D24000C50045A0D50055A0E50065A0F50075ACB
:100D34001050085AD89010320F320E320D320C3245
:100D44000B320A320932112E75EF06F01250D8B464
:100D5400AEEF06F0B0EF06F0C0EF06F0081E071E77
:100D6400061E051E041E031E021E016C000E022236
:100D740003220422052206220722082201C001F0D0
:100D840002C002F003C003F004C004F005C005F083
:100D940006C006F007C007F008C008F01200720E83
:100DA400D36E000E936E000E8A6E000E956E000ECA
:100DB4008C6E000E926E000E896E000E946E3EECE8
:100DC40009F0030E036E010E04EC09F0010E036E2C
:100DD400060E046E2BEC08F0150E6C6E4B0E6B6E4B
:100DE400BE0EE82EFED76B2EFCD76C2EFAD700D0A1
:100DF4007BEC09F0130E786E880E776E000E7A6E17
:100E0400000E796E030E036E010E04EC09F0170E4A
:100E1400036E060E046E2BEC08F00B0E6C6E260EA1
:100E24006B6E5E0EE82EFED76B2EFCD76C2EFAD7B7
:100E340054EF07F07706D8A07806794A7A2A6D0E1F
:100E4400586E000E596E1F0E5A6E060E5B6E79C0F8
:100E54005CF07AC05DF09BEC08F0050E036E020EA8
:100E640004EC09F06D0E036E000E046E2BEC08F01A
:100E74008C84070E6C6E170E6B6E6A0EE82EFED70E
:100E84006B2EFCD76C2EFAD700D08C94070E6C6EA8
:100E9400170E6B6E6A0EE82EFED76B2EFCD76C2EE7
:100EA400FAD700D077507810D8A45BEF07F05DEF45
:100EB40007F01CEF07F0000E7A6E000E796E54EF07
:100EC40007F000EF00F003500410D8B46CEF07F003
:100ED4006EEF07F077EF07F003500410D8A475EF16
:100EE40007F077EF07F07CEF07F001507FEC09F093
:100EF400C9EF07F020EE09F00350D9260450DA2296
:100F0400DE50DE10D8B489EF07F08BEF07F0A6EFC0
:100F140007F020EE09F00350D9260450DA2210EE2F
:100F240003F00350E1260450E222DE50E65CE65072
:100F3400800A096EDE50800A0958D8B0A4EF07F081
:100F4400A6EF07F0C9EF07F020EE03F00350D9260F
:100F54000450DA22DECF05F0DDCF06F003C0D9FF5E
:100F640004C0DAFFDECF07F0DDCF08F00550072418
:100F7400D96E06500820DA6E01C0DFFF20EE03F0C0
:100F84000350D9260450DA22DE2A000EDD22120094
:100F94007DA0CFEF07F0D1EF07F0DBEF07F013C030
:100FA4000AF014C00BF011C00CF012C00DF0C2EC2A
:100FB40008F016BEE0EF07F0E2EF07F0E8EF07F005
:100FC40015C01AF016C01BF0ECEF07F0000E1B6EF4
:100FD400000E1A6E000E196E000E186EFEEF07F06A
:100FE400000E026E200E016E11C003F012C004F058
:100FF40065EC07F0184A192A1A50185C1950800A2F
:10100400176E1B50800A1758D8A00BEF08F00DEF8D
:1010140008F0F2EF07F07DB012EF08F014EF08F0DB
:101024001EEF08F013C00AF014C00BF011C00CF04E
:1010340012C00DF0C2EC08F013C001F014C002F0AD
:1010440023EC09F01A500124116E1B500220126E79
:101054001200000E086E000E076E4BEF08F00750EA
:101064000324056E08500420066E05C0F6FF06C072
:10107400F7FFF86A050EF76403D00800F55005D0B1
:10108400F6CFE1FFF7CFE2FFE7505DEC09F0074A46
:10109400082A07500324056E08500420066E05C074
:1010A400F6FF06C0F7FFF86A050EF76403D00800E0
:1010B400F55005D0F6CFE1FFF7CFE2FFE750000986
:1010C400D8A467EF08F069EF08F031EF08F01200D8
:1010D40052C056F053C057F0000E0001816F000E4D
:1010E400806F88EF08F050C040F051C041F0560EB8
:1010F400426E000E436E54C044F055C045F081EC7E
:1011040004F04050000180274150812356C0F6FF6F
:1011140057C0F7FF0800F5500009D8A494EF08F071
:1011240096EF08F075EF08F080C050F081C051F0E0
:1011340012005C0E5E6E000E5F6E58C060F059C007
:1011440061F0000E646E000E636E000E6A6E000E97
:10115400696E600E506E000E516E5AC052F05BC044
:1011640053F05E0E546E000E556E6AEC08F0635038
:101174005824D96E64505920DA6E000EDF6E1200C6
:10118400000E106E000E0F6ED3EF08F00EC001F0CB
:10119400026A0CC003F00DC004F065EC07F00F4ABE
:1011A400102A0F500A24D96E10500B20DA6EDF502B
:1011B4000E6E0E50D8A4E1EF08F0E3EF08F0C8EF8C
:1011C40008F0120014BEF1EF08F0145006E1130405
:1011D400D8B0EFEF08F0F1EF08F0FFEF08F013C01C
:1011E40015F014C016F0151E161E154A162A15C041
:1011F40013F016C014F003EF09F013C013F014C079
:1012040014F01200046E0404D8A40BEF09F00DEFDF
:1012140009F013EF09F003507F0F056E05506CECD5
:1012240009F0020E0418D8A41AEF09F01CEF09F013
:1012340022EF09F00350BF0F056E05506CEC09F066
:10124400120001C003F002C004F02BEF09F0014AC0
:10125400022A01C0D9FF02C0DAFFDF50D8A435EF5B
:1012640009F037EF09F029EF09F00350015C016E32
:1012740004500258026E1200380E6CEC09F00C0E89
:101284006CEC09F0010E6CEC09F0060E6CEC09F044
:10129400800E6CEC09F0120000EE80F0240EEE6A71
:1012A400E806FDE17E6A7D6A7C6A7B6A000EF86E60
:1012B4000001D1EF06F0026E02C08AFF89828984A0
:1012C400100E016E940EE82EFED7012EFCD700D02E
:1012D40089941200026E02C08AFF89928984100EDA
:1012E400016E940EE82EFED7012EFCD700D089940F
:0C12F4001200010E6CEC09F01200120058
:020000040020DA
:08000000FFFFFFFFFFFFFFFF00
:020000040030CA
:0E000000FF081F1EFF8180FF0FC00FE00F40A2
:00000001FF
